:020000040800F2
:10000000F0120020293A0008590100085B0100089D
:100010005F0100086301000867010008000000009C
:100020000000000000000000000000006B0100085C
:100030006D010008000000006F0100087101000858
:10004000433A0008433A0008433A0008433A00089C
:10005000433A0008433A0008433A0008433A00088C
:10006000433A0008433A0008433A0008433A00087C
:10007000433A0008433A0008433A0008433A00086C
:10008000433A0008433A0008433A0008433A00085C
:10009000433A0008433A0008433A0008433A00084C
:1000A000433A0008433A0008433A0008433A00083C
:1000B000433A0008433A0008433A0008433A00082C
:1000C000433A0008433A0008433A0008433A00081C
:1000D000433A0008790100088101000889010008FD
:1000E000433A0008433A0008433A0008DFF80CD0CE
:1000F00008F0C0FD0048004701010008F012002090
:1001000008B50025002400F055FA4FF400511048BE
:1001100004F029F900F011FB00F005FB01F048F9AB
:1001200001F0ECF913E000F0E5FF01F056F80948A2
:100130000068401B14280AD906480568684602F082
:1001400062FDC4B21CB12046009902F0BBFDEAE793
:100150000010014004000020704700BFFEE700BF10
:10016000FEE700BFFEE700BFFEE77047704770473D
:1001700010B500F055FA10BD10B500F0A3F810BD91
:1001800010B500F0B2F810BD704700002DE9F04145
:1001900007460D46164600BF8021384604F001FD93
:1001A0000028F9D000240CE02046641C295C384665
:1001B00004F089FC00BF4021384604F0F2FC00281E
:1001C000F9D0B442F0D3BDE8F0811FB54FF4E1306F
:1001D00000900020ADF80400ADF80600ADF808006E
:1001E000ADF80C000C20ADF80A006946474804F051
:1001F0006EFB012240F22551444804F000FC01212D
:10020000424804F0F0FB162241A14048FFF7BEFF30
:100210004FF4165000900020ADF80400ADF8060031
:10022000ADF80800ADF80C000C20ADF80A006946E6
:100230003D4804F04CFB012240F225513A4804F0BD
:10024000DEFB0121384804F0CEFB1FBD70B504462B
:100250000D46E0B23549088000BF80212B4804F0EC
:10026000A0FC0028F9D0204670BD10B5044600BFA0
:100270002021264804F095FC0028F9D0234804F0FA
:1002800026FC10BD2DE9F04107460D461646002418
:1002900000BF13E000BF4021384604F082FC002874
:1002A000F9D0295D384604F00EFC00BF40213846E5
:1002B00004F077FC0028F9D0601C84B2B442E9DB7A
:1002C000BDE8F08108B51120009040F225510F489B
:1002D00004F07DFC40B10D4804F0F9FB00900122D0
:1002E00069460A48FFF7CEFF08BD10B5002440F26A
:1002F00025510D4804F06BFC30B10B4804F0E7FBCE
:100300000446E0B200F0F5FA10BD000000380140EC
:1003100055534152543120494E495420535543437B
:10032000454544210D0A00000044004004380140C6
:1003300008B54FF40050ADF8000010208DF8030010
:1003400003208DF802006946A84803F05FFF4FF4D0
:100350000070ADF8000003208DF8020018208DF821
:1003600003006946A24803F051FF4FF48060ADF8E6
:10037000000004208DF8030069469D4803F046FF05
:100380000420ADF8000003208DF8020018208DF83D
:1003900003006946964803F039FF0820ADF80000D5
:1003A00004208DF803006946914803F02FFFE320F5
:1003B000ADF8000000208DF8030069468C4803F07A
:1003C00025FF4FF44C60ADF8000003208DF80200CB
:1003D00014208DF803006946864803F017FF4FF498
:1003E0004340ADF8000003208DF8020014208DF882
:1003F000030069467F4803F009FF08BD00B591B0CE
:100400007D4804F027FC7D4801907D480290002043
:100410000390322004900020059080200690400038
:100420000790800008902020099000020A90002088
:100430000B9001A9704804F0ADFC00200C90012045
:100440008DF834008DF835004FF460200E900020B8
:100450000F9005208DF840000CA968484C3803F037
:100460007CFC07230122002164484C3803F00DFD79
:1004700007230222012161484C3803F006FD0723BF
:10048000032205215D484C3803F0FFFC07230422BA
:1004900006215A484C3803F0F8FC07230522194678
:1004A00056484C3803F0F1FC012154484C3803F015
:1004B0008BFC012151484C3803F07BFC4F484C38F1
:1004C00003F099FC00BF4D484C3803F099FC00281C
:1004D000F9D14A484C3803F09DFC00BF47484C38DE
:1004E00003F09DFC0028F9D111B000BD10B5012129
:1004F000084604F031F90121880304F03AF901219A
:10050000480404F043F9012140F21D2004F031F9C0
:1005100010BD08B54FF4E06003F07CFB25208DF89A
:10052000000000208DF8020001208DF803006846CD
:1005300003F075FB26208DF8000001208DF80200E5
:100540008DF80300684603F06AFB08BD10B5FFF79D
:10055000CDFFFFF7DEFFFFF7EBFEFFF74FFF294967
:1005600009686422B1FBF2F0B0F1807F01D3012170
:100570001CE020F07F41491E4FF0E022516100BF96
:100580005117002905DA0F2109011F4A0B23D15405
:1005900004E00F2109011D4A5317D15400BF002167
:1005A0004FF0E022916107211161002109B100BFE4
:1005B000FEE710BD10B5FFF7C9FF00F08DF8FFF79B
:1005C00004FE4FF40051094803F0CBFE00F023F97C
:1005D0000F4800F061F80B4801680EA008F0FAFB24
:1005E00044F2213000F058F810BD00000010014026
:1005F00000080140000C0140080002404C2401406A
:100600009C010020F000002018ED00E000E400E074
:1006100021430500737973636C6B2025640D0A0018
:1006200010B52A4800680A30284908600846006862
:100630004FF47A71B0FBF1F201FB120098B9244833
:10064000007840B94FF40051224803F08AFE01209F
:100650001F49087007E04FF400511E4803F083FE65
:1006600000201B49087010BD07E0002100E0491C74
:100670004CF250329142FAD3401E0028F5D1704717
:1006800010B50346002404E04FF47A70FFF7ECFF46
:10069000641C9C42F8D310BD00BF0100A0F1010012
:1006A000FBD1704700E0401E0028FCD17047704726
:1006B0001E2001E0411EC8B20028FBD1704741F264
:1006C000883000E0401E0028FCD170470400002064
:1006D000080000200010014010B50121284803F057
:1006E000A8FB0121274804F080FB10BD70B5002451
:1006F00016E0214624A008F06DFB00250AE005EB7A
:100700008500254A02EB400030F8141023A008F0C1
:1007100061FB6D1C0A2DF2DB22A008F05BFB641C60
:10072000052CE6DB70BD10B50021154803F081FBF8
:100730000021144804F059FB10BD70B500260024B8
:100740001BE0002508E005EB8500134901EB4000A4
:1007500030F8140006446D1C0A2DF4DB0A20B6FBA9
:10076000F0F0114941F824000026084650F82420F2
:10077000611C0EA008F02EFB641C052CE1DB70BD93
:100780000024014008000240616463206368616ED8
:100790006E656C25643A20009C010020203078258D
:1007A000303478000A000000000200206176657293
:1007B000616765206164632063686E2025643A2068
:1007C0003078253034780D0A000000003EB504462C
:1007D000FA4D11222946204607F0D1FDF8A008F075
:1007E000F9FA0B222146684607F0C9FD9DF8000082
:1007F00068B19DF80000FF2809D000208DF80B009B
:1008000004F10B026946F2A008F0E4FA02E0F6A057
:1008100008F0E0FA3EBD10B5F848002101604FF441
:10082000FA71F74807F09FFD1121F64807F09BFD8C
:1008300040F6C611F44807F096FDF248FFF7C6FFF0
:1008400010BD2DE9F0470646374600240025A24694
:100850004FF0040804F047FB4FF00209342004F085
:10086000DAFD00BF07E0D5494A1402FB041004F08A
:100870007AFB8046641C4C4502D2B8F1040FF2D0DA
:10088000CE4D4FF0110A06E02846396804F03CFCD2
:1008900080462D1D3F1DC9485044A84202D9B8F1D9
:1008A000040FF1D004F02CFBBDE8F08770B50024F4
:1008B000042604F018FB0225342004F0ACFD00BF30
:1008C00007E0BE494A1402FB041004F04CFB064644
:1008D000641CAC4201D2042EF3D004F011FB70BDB5
:1008E00070B504460D462A462146C848FFF7CAFCA3
:1008F00070BD0146C1480078D8BB042911D1BF485A
:10090000807870B9BD488078401CBC4A9070104611
:10091000407800EBC00202EB0010B94A02F8101058
:1009200086E0932915D1B5488078012811D1B348C4
:100930008078401CB14A90700120107010464078B9
:1009400000EBC00202EB0010AD4A02EB4000417028
:100950006EE004290ED1A948807801280AD1A74861
:10096000407800EBC00202EB0010A54A02F810101C
:100970005EE003E00020A14A907059E09F48807833
:1009800030280EDD00209D4A527802EBC20303EBB3
:1009900002129B4B03F81200984A10709070401E90
:1009A0007047964882788078401C944B987018461F
:1009B000407800EBC00303EB0010914B03EB4000C9
:1009C00081540A2934D18D48407800EBC00202EBF3
:1009D00000101A4602EB400288488078801E105CA6
:1009E0000D2825D185488078112821DB0020834AF5
:1009F000527802EBC20303EB0212814B03EB42027B
:100A00007E4B9B78D0547D4880787C4A5278804BCE
:100A100023F812000020794A107090701046407838
:100A2000401C5070104640780A2801D100205070B8
:100A30000020B5E730B502461078012304E01C46DB
:100A40005D1CABB2145D60408B42F8DB30BD70B50D
:100A500004460D460026112D01DA002070BDA07A53
:100A60000002C0B2E17A40EA010606F10E008542BA
:100A700006D03246294667A008F0ACF90020EDE721
:100A80003046EBE702466C480068401C6A4B186031
:100A900018460068884201D1002070474FF0FF30AF
:100AA000FBE770B505460C46142C06D0214663A022
:100AB00008F090F94FF0FF3070BD142C16D151485A
:100AC000007818B14F480078FF280FD10B22294633
:100AD0004C4807F054FC062205F10B0149480B3045
:100AE00007F04DFC4748FFF7ACFE05E058A008F0C2
:100AF00071F96FF00100DFE70020DDE770B5044613
:100B00000D460026142D05D029464CA008F062F9A8
:100B1000701E70BD0B223B49204607F049FC90B97E
:100B2000062238490B3104F10B0007F041FC20B9D3
:100B300001204E49087000260AE04DA008F04AF94D
:100B40006FF0010604E04FA008F044F96FF00206D0
:100B50003046DEE770B505460E461A2E06D0314601
:100B600036A008F037F94FF0FF3070BD0B22254951
:100B7000284607F01DFCC8B9062222490B3105F1B1
:100B80000B0007F015FC58B9062205F111011D48AC
:100B90000B3007F0F4FB1B48FFF753FE00240AE07C
:100BA00033A008F017F96FF0010404E035A008F055
:100BB00011F96FF002042046D7E7000000F00008AA
:100BC000636865636B2075737220696E666F3A00A7
:100BD00070686F6E653A25732C7061737377643A31
:100BE00025730D0A000000006E65656420696E695A
:100BF0007420757372696E666F0D0A00180000200C
:100C0000140200201C0400202D04002000380140A4
:100C10000804002073697A65206572722C746F7401
:100C2000616C206C656E2025642C6D73674C656E5D
:100C30002025640D0A000000100000206572726F0C
:100C4000723A73697A652069732025640D0A000081
:100C50006572726F723A206D6179626520686176A3
:100C60006520696E69740D0A000000000C00002008
:100C700070617373776164206973206572720D0A05
:100C8000000000007573722070686F6E65206E75CD
:100C90006D626572206973206572720D0A00000032
:100CA00070B506460C460025032C0DD1F948007896
:100CB000012809D10020F74908701121F64807F0F2
:100CC00052FBFFF7F3FD01E04FF0FF35284670BD02
:100CD00010B502460020032901D0401E02E0002387
:100CE000EC4C237010BD02460020704730B505461D
:100CF0000C46601E81B22846FFF79CFE611E6854B8
:100D00000D2028550A21601C295430BD2DE9F047DB
:100D1000804614461D462046294607F004FE8146BB
:100D20004FEA196088F800004FEA194088F801007E
:100D30004FEA192088F8020088F803900022D74B68
:100D40002046294607F0B6FC064607F0ECFD814632
:100D500042F21070B9FBF0F100FB11994FEA1960F3
:100D600088F804004FEA194088F805004FEA192076
:100D700088F8060088F80790BDE8F087C849096838
:100D8000491CC74A11600221017043214170C549C5
:100D90000968090E8170C3490968090CC170C1490D
:100DA0000968090A0171BF4909684171114609685A
:100DB000090E817111460968090CC1711146096853
:100DC000090A01721146096841727047B6494A78AA
:100DD0004978491CB44B597002EBC20101EB021275
:100DE000991C01EB4200891E4978322902D1002169
:100DF0001A46517070472DE9F04782468846914661
:100E00001B27FFF7E3FF064607F10E003070761C44
:100E10003046FFF7B3FF3812B072F772002030731C
:100E20002D207073504607F095FD044602460B4690
:100E300006F10E00FFF76AFF404607F08BFD0446FF
:100E400002460B4606F11600FFF760FF484607F022
:100E500081FD044602460B4606F11E00FFF756FFD1
:100E6000394606F10C00FFF741FF0020BDE8F0878E
:100E700030B50546FFF7AAFF044611202070641C18
:100E80002046FFF77BFF0020A0720320E0722812AB
:100E900020736573032104F10C00FFF727FF002086
:100EA00030BD00B5A320FFF7E3FF002000BD00B573
:100EB000A920FFF7DDFF002000BD00B5A820FFF747
:100EC000D7FF002000BD00B5A720FFF7D1FF00200D
:100ED00000BD00B5A620FFF7CBFF002000BD00B588
:100EE000A520FFF7C5FF002000BD30B50525FFF7A1
:100EF0006DFF044605F10E002070641C2046FFF7CC
:100F00003DFF2812A072E57200202073AC206073B0
:100F100066480078A07366480078E073294604F1BB
:100F20000C00FFF7E3FE002030BD00B5A420FFF762
:100F30009FFF5F48007810B95C48007808B1FFF760
:100F4000D4FF002000BD00B5A220FFF791FF0020D4
:100F500000BD00B5A120FFF78BFF002000BD2DE9EB
:100F6000FC4704468A464FF00009002551462046BA
:100F7000FFF76DFD8146B9F1000F04D1002020700C
:100F8000401EBDE8FC87A0780006E17840EA0140F9
:100F9000217940EA0140617940EA0107A079000621
:100FA000E17940EA0140217A40EA0140617A40EA71
:100FB000010841463846FFF765FD207B4FF47F412D
:100FC00001EA0020617B40EA0106012E04DD314880
:100FD000007808B9FFF765FF032E31D005DC4EB16C
:100FE000012E14D0022E48D11EE0042E35D0AB2E97
:100FF00043D13CE0494604F10E00FFF752FD05469F
:1010000015B9FFF7A6FF01E0FFF79DFF36E049465F
:1010100004F10E00FFF772FD054615B9FFF785FFD5
:1010200001E0FFF75CFF29E0494604F10E00FFF7FD
:1010300091FD15B9FFF74DFF01E0FFF744FF1DE0FB
:10104000494604F10E00FFF72BFE054615B9FFF7E0
:1010500034FF01E0FFF72BFF10E0494604F10E00DA
:10106000FFF736FE05460DB9FFF71BFF06E0114AF4
:1010700011491248FFF7BFFE00E000BF00BF3DB1BD
:101080003346424639460EA0CDE9009507F0A2FE50
:10109000284676E70C0000201C0400200088C3408E
:1010A00014000020100000202D040020010000206A
:1010B00000000020AAF1AC424861354285EBC941ED
:1010C0000D0A6D736747202564206D7367532025D3
:1010D00064206D7367436D6420253034782C206D57
:1010E00073674C656E2025642C6572722025640D33
:1010F0000A00000010B51AE04A4AD2784A4B33F889
:101100001210484AD27802EBC20303EB0212474B9B
:1011100003EB4200FFF723FF4248C078401C4149DF
:10112000C8700846C0780A2801D10020C8703D4820
:10113000C0783C4949788842DED110BD70B51B2586
:10114000FFF744FE04462046FFF718FE2812A0725F
:10115000E572002020732A206073354A354B04F174
:101160000E00FFF7D3FD344A344B04F11600FFF7AD
:10117000CDFD334A334B04F11E00FFF7C7FD29466E
:1011800004F10C00FFF7B2FD002070BD0020704795
:1011900070B52D48007808B9312603E02A48007858
:1011A000401EC6B206EBC60000EB06112648801CA6
:1011B00000EB4104257845B16078022805D12A4624
:1011C000611C2248FFF75EF805E021A007F002FE4F
:1011D0004FF0FF3070BD0020FCE770B51AE01A48F0
:1011E000007800EBC00101EB00111748801C00EBF8
:1011F000410425782A46611C1448FFF743F8124839
:101200000078401C1049087008460078322801D147
:10121000002008700C4840780B4909788842DED1DC
:10122000002070BD180000200804002014020020D7
:101230001F85EB51B81E4240295C8FC2F5684040C3
:10124000E9263108AC7C4A402D04002000440040CF
:1012500073656E74206C6F737320646174612066B3
:1012600061696C7572650D0A00000000014691F914
:101270000020002A01DD00201EE091F90020002A54
:1012800001DA042018E091F90120002A01DD012093
:1012900012E091F90120002A01DA05200CE091F911
:1012A0000220002A01DD022006E091F90220002A36
:1012B00001DA062000E00720704770B50546284691
:1012C000FFF7D4FF0446E81CFFF7D0FF44EAC00054
:1012D00084B2A81DFFF7CAFF44EA801084B22046FA
:1012E00070BD70B588B002A905A805F018FE0446C7
:1012F000072C3FD101A805F054F9059807F0BAFA78
:101300000646019907F0BBF8054607F0DFFA05909D
:10131000069807F0AFFA0646019907F0B0F80546BF
:1013200007F0D4FA0690079807F0A4FA0646019948
:1013300007F0A5F8054607F0C9FA079005A806F0DA
:101340008CF9684605F04AF9BDF800100298484348
:101350000290BDF80010039848430390BDF80010B8
:1013600004984843049002A806F012FAE0A007F09F
:1013700031FD02E0E7A007F02DFD08B070BD014689
:1013800005E0002001E0421CD0B20A28FBDB0A0085
:10139000A1F10101F5D1704710B5044603E04FF407
:1013A0007A70FFF7ECFF2000A4F10104F7D110BD23
:1013B00070B586B0002533E000208DF810008DF860
:1013C00011008DF8120005EB4500DB4901EB8004AC
:1013D00006208DF80C0018208DF80D00207803AB46
:1013E00002221A216668B047207804AB01227521D9
:1013F000A668B04720780DF1110303221A21A668D0
:10140000B0479DF813309DF81220CDE900239DF8D8
:10141000113022782946C9A007F0DCFC681CC5B24F
:10142000072DC9DB06B070BD2DE9F0410546072D3B
:101430000BDA05EB4500C04901EB8004C749606841
:101440000860C749A068086001E0BDE8F081207825
:10145000294604F0EEFD064666B122782946C1A071
:1014600007F0B8FC0120A840C94909780843C849D9
:101470000870EAE7D6BB792004F0BAF8782004F0C7
:10148000F9FB10B1C3A007F0A5FC322004F0F6FC74
:1014900010B1CCA007F09EFC06F044F810B1D2A029
:1014A00007F098FCDF48FFF708FF074606F044F80E
:1014B00010B1DDA007F08EFC40F2731006F093FC33
:1014C00010B1E5A007F086FC322006F005FA10B155
:1014D000EDA007F07FFCFFF704FF012005F0D8FC2A
:1014E00028B922782946F4A007F074FC04E0227899
:1014F0002946FF4807F06EFC00BFA6E770B5002440
:1015000003E0E0B2FFF790FF641C072CF9DB002436
:1015100010E004EB4400884901EB80058F496868BE
:1015200008608F49A8680860287804F029F804F05A
:10153000AFFA641C072CECDB70BD7CB5EDA103C9D0
:10154000CDE90001052505EB45007B4901EB800451
:1015500020786B4601226B216668B04720780DF138
:101560000103042219216668B047062505EB4500F2
:10157000714901EB800420786B4601226B2166687B
:10158000B04720780DF10103042219216668B047A5
:101590007CBD2DE9F04F95B007460E460120B840BE
:1015A0007B490978084202D015B0BDE8F08F072FBB
:1015B0000DDA07EB4700604901EB80086749D8F86E
:1015C000040008606649D8F80800086000E0EBE70E
:1015D00098F8000003F0D4FFC84BC94ACDE90023B6
:1015E000C84BC94AC949CA4806F05CFD002212A985
:1015F000384605F0D3FD8146B9F1000F04DA4A46BA
:101600003946C4A007F0E6FBBD48008810F4807F8F
:101610006DD0BD49086807F02DF904464FF09D4193
:1016200006F063FFC5490860B749486807F022F92A
:1016300004464FF09D4106F058FFC1490860B24989
:10164000886807F017F904464FF09D4106F04DFFFA
:10165000BC490860AC49C86807F00CF904464FF073
:101660009D4106F042FFB8490860B44801684FF058
:10167000804006F004FF0C90B24801680C9806F018
:10168000FEFE0E90AE4801684FF0404006F0F7FEB7
:101690000C90AD4801680C9806F0F1FE0D900E9983
:1016A00006F095FE0F9007F055F9044608F060FC2F
:1016B000CDE9100107F08CF93060A24801684FF0C5
:1016C000804006F0DCFE09909E480168099806F00B
:1016D000D6FE0A909A4801684FF0404006F0CFFECF
:1016E000099097480168099806F0C9FE2EE159E271
:1016F00073657474696E67206269617320737563C2
:1017000063657366756C6C79202E2E2E2E2E2E0D31
:101710000A0000006269617320686173206E6F7453
:10172000206265656E206D6F646966696564202E50
:101730002E2E2E2E2E0D0A004000002063686E20F3
:1017400025643A736C617665206164647220257843
:101750002C25782C25782C25780D0A008C0100206A
:10176000900100206D707520256420736C61766592
:10177000616464722030782530327820696E697433
:10178000206661696C65642E2E2E0D0A0000000033
:10179000000000206D70755F636F6E66696775721B
:1017A000655F6669666F20636F6D65206163726F48
:1017B0007373206572726F72202E2E2E2E2E2E0DB8
:1017C0000A0000006D70755F7365745F73616D7002
:1017D0006C655F72617465206572726F72202E2E67
:1017E0002E2E2E2E0D0A0000646D705F6C6F6164EA
:1017F0005F6D6F74696F6E5F6472697665725F6644
:1018000069726D7761726520636F6D6520616372C7
:101810006F7373206572726F72202E2E2E2E2E2EF5
:101820000D0A000037000020646D705F7365745FFF
:101830006F7269656E746174696F6E20636F6D6538
:10184000206163726F7373206572726F72202E2E27
:101850002E2E2E2E0D0A0000646D705F656E616283
:101860006C655F6665617475726520636F6D652078
:101870006163726F7373206572726F72202E2E2EE9
:101880002E2E2E0D0A000000646D705F7365745F6C
:101890006669666F5F7261746520636F6D65206154
:1018A00063726F7373206572726F72202E2E2E2EEC
:1018B0002E2E0D0A000000006D7075202564207327
:1018C0006C617665616464722030782530327820EE
:1018D0007365745F646D705F737461746520636FAA
:1018E0006D706C657465202E2E2E2E2E2E0D0A0026
:1018F00088B100080007061801000000BA000020A7
:10190000B8000020A8000020580E0020B2000020DF
:10191000AC00002067657420636F6D706173732085
:1019200064617465206661696C6520696420256462
:101930002C7265742025640D0A0000001C00002034
:1019400020000020240000202800002005460A99DD
:1019500006F08FFD4FF07E510B9006F038FD0446E7
:1019600006F0F8FFCDE90E01FD4801684FF0804018
:1019700006F085FD0A90FB4801680A9806F07FFD95
:101980000546F94801684FF0804006F078FD0A905E
:10199000F64801680A9806F072FD29460B9006F099
:1019A00016FD044606F0D6FFCDE90C01DDE90E2355
:1019B00008F030FDCDE9100107F00AF870603068DA
:1019C00006F0C8FF044609F027FBCDE90A0170685C
:1019D00006F0C0FFCDE9040108F0DCFDCDE9060109
:1019E000BDF94C0006F054FF0446DDE9062306F07D
:1019F00061FECDE90801DDE90A2306F05BFECDE9D1
:101A00000E01306806F0A6FF044609F005FBCDE99B
:101A10000601706806F09EFF044609F0FDFACDE964
:101A20000201BDF94A0006F033FFCDE90001DDE90E
:101A3000022306F03FFECDE90401DDE9062306F0AE
:101A400039FECDE90A01306806F084FFCDE90401D2
:101A500008F0A0FD04460D46BDF9480006F018FF49
:101A600022462B46CDE9060106F024FECDE9080109
:101A7000DDE90A2306F079FDCDE90C01DDE90E234D
:101A800006F012FECDE9100106F0A2FF8346706851
:101A900006F060FFCDE9080108F07CFDCDE90A0100
:101AA000BDF94A0006F0F4FE0446DDE90A2306F01B
:101AB00001FECDE90E01706806F04CFFCDE908018A
:101AC00009F0AAFACDE90A01BDF94C0006F0E0FEE2
:101AD0000446DDE90A2306F0EDFDCDE90C01DDE960
:101AE0000E2306F042FDCDE9100106F071FF82469B
:101AF0009F4951F8270006F02DFFCDE90E0130680F
:101B000006F028FF04469B4A9B4B06F0D3FDCDE927
:101B10000C01DDE90E2306F028FDCDE9100106F0E9
:101B200057FF3060954951F8270006F013FFCDE9C3
:101B30000E01706806F00EFF04468E4A8E4B06F0CA
:101B4000B9FDCDE90C01DDE90E2306F00EFDCDE96E
:101B5000100106F03DFF7060894951F8270006F03A
:101B6000F9FE04460D46584606F0F4FECDE90A019A
:101B7000504606F0EFFECDE90801DDE90A2308F042
:101B800049FC7C4A7C4BCDE90C0106F093FD2246D2
:101B90002B46CDE90E0106F0E8FCCDE9100106F078
:101BA00017FFB06000BFFFE470B5054604240024B1
:101BB00007E004EB440005EB8001E0B2FFF7E9FC2D
:101BC000641C072CF5DB70BD2DE9F04788B0044696
:101BD0000D4600276B4E307806AB06223B21D6F827
:101BE00008C0E0470746012F03D1384608B0BDE8DA
:101BF000F0879DF819009DF8181040EA01200FFAAF
:101C000080F89DF81B009DF81A1040EA01200FFA99
:101C100080F99DF81D009DF81C1040EA01200FFA84
:101C200080FA404606F034FE0022574BCDE9000111
:101C300006F0B1FD554A564BCDE9020106F03AFDDA
:101C4000CDE9040106F0C4FE2060484606F020FEFF
:101C500000224D4BCDE9000106F09DFD4B4A4C4B57
:101C6000CDE9020106F026FDCDE9040106F0B0FE43
:101C70006060504606F00CFE0022434BCDE90001A7
:101C800006F089FD414A424BCDE9020106F012FD02
:101C9000CDE9040106F09CFEA0603A4E0C36307887
:101CA00006AB06223B21D6F808C0E0470746EFBB4B
:101CB0009DF819009DF8181040EA01200FFA80F8ED
:101CC0009DF81B009DF81A1040EA01200FFA80F9D8
:101CD0009DF81D009DF81C1040EA01200FFA80FAC3
:101CE000404606F0D5FD0022274BCDE9000106F065
:101CF00052FD264A264BCDE9020106F0DBFCCDE978
:101D0000040106F065FE2860484606F0C1FD002289
:101D10001D4BCDE9000106F03EFD1C4A1C4BCDE9F0
:101D2000020106F0C7FCCDE9040100E016E006F070
:101D30004FFE6860504606F0ABFD0022124BCDE925
:101D4000000106F028FD114A114BCDE9020106F011
:101D5000B1FCCDE9040106F03BFEA860384645E73A
:101D60001C0000202000002024000020280000206B
:101D7000040E0020DC9E20B1DDA54C40200E00208A
:101D80003C0E00207C0000200000E0408FC2F528BF
:101D90005C8F3340FEB505460C46112000900027AD
:101DA00005EB45002B4901EB800601AB0622032120
:101DB0000C20D6F808C0E047074617B126A007F068
:101DC00009F86B4601220A210C20D6F804C0E0472E
:101DD000074617B123A006F0FDFF9DF804009DF80B
:101DE000051040EA012000B220809DF806009DF811
:101DF000071040EA012000B260809DF808009DF8BD
:101E0000091040EA012000B2A080B4F9000005EBFF
:101E10004501174A32F911104843001200B22080E0
:101E2000B4F9020005EB450102EB4101B1F90210E2
:101E30004843001200B26080B4F9040005EB45018C
:101E400002EB4101B1F904104843001200B2A08036
:101E5000FEBD0000400000206A696E676778782048
:101E60000D0A00007364667364667366200D0A00D1
:101E70006001002010B58020B84908604FF0400094
:101E8000B749C1F8100CFEF713FCB648006808B952
:101E9000012000E0002010F0800F01D0002010BDD4
:101EA0008020B1490860FEF703FCAD48D0F8080C6B
:101EB00010F0800F01D00020F1E78020AA490860CF
:101EC000FEF7F6FB0120EAE710B54020A6490860BE
:101ED000FEF7EEFB8020A249C1F8140CFEF7E8FBE8
:101EE00040209E490860FEF7E3FB80209C49C1F832
:101EF000100CFEF7DDFB10BD10B540209A490860BC
:101F0000FEF7D6FB80209649C1F8140CFEF7D0FBF3
:101F1000402092490860FEF7CBFB40209049C1F871
:101F2000140CFEF7C5FB10BD10B540208E490860AB
:101F3000FEF7BEFB80208A49C1F8100CFEF7B8FB03
:101F4000402086490860FEF7B3FB40208449C1F871
:101F5000140CFEF7ADFB10BD10B54020824908609F
:101F6000FEF7A6FB80207E49C1F8100CFEF7A0FB0F
:101F700040207A490860FEF79BFB7948D0F8080CAE
:101F800010F0800F06D0402077490860FEF790FBE4
:101F9000002010BD402074490860FEF789FB012035
:101FA000F7E770B50446082517E040206E49086041
:101FB000FEF77EFB14F0800F03D080206749086095
:101FC00002E08020684908606006040EFEF770FB9E
:101FD000402062490860FEF76BFB2800A5F1010173
:101FE000CDB2E2D140206049086070BD2DE9F041DA
:101FF00080460D4616461F46FFF73CFF10B90020ED
:10200000BDE8F0814046FFF7CCFFFFF7A5FF18B908
:10201000FFF75AFF0020F3E72846FFF7C2FFFFF75C
:102020009BFF18B9FFF750FF0020E9E700240AE002
:10203000385DFFF7B6FFFFF78FFF18B9FFF744FFD2
:102040000020DDE7641CB442F2DBFFF73DFF012016
:10205000D6E770B50825002480204049086013E0C9
:102060006006040E402040490860FEF721FB402036
:102070003B49C1F8100CFEF71BFB3A48006810F012
:10208000800F01D044F001042800A5F10101CDB278
:10209000E6D1402034490860204670BD2DE9F0416A
:1020A00007460E4614461D46FFF7E4FE10B9002011
:1020B000BDE8F0813846FFF774FFFFF74DFF18B910
:1020C000FFF702FF0020F3E73046FFF76AFFFFF754
:1020D00043FFFFF7CFFE781CC0B2FFF762FFFFF7A8
:1020E0003BFF0CE0FFF7B5FF2870012C02D1FFF792
:1020F0001BFF01E0FFF700FF6D1C601EC4B2002C47
:10210000F0D1FFF7E1FE0120D2E72DE9F0410446CE
:102110000D4616461F466106080E3B4632462946C6
:10212000FFF764FF10B10020BDE8F0814FF0FF30F1
:10213000FAE72DE9F04104460D4616461F466106B2
:10214000080E3B4632462946FFF7A8FF10B1002093
:10215000BDE8F0814FF0FF30FAE70000100C0140BD
:1021600000000140080C0140140C014010B54FF470
:102170000070C64908604FF48070C549C1F8100C62
:10218000FEF796FAC348006808B9012000E0002075
:1021900010F4007F01D0002010BD4FF40070BE4944
:1021A0000860FEF785FABA48D0F8080C10F4007FF2
:1021B00001D00020F0E74FF40070B7490860FEF747
:1021C00077FA0120E8E710B54FF48070B249086053
:1021D000FEF76EFA4FF40070AD49C1F8140CFEF72B
:1021E00067FA4FF48070A9490860FEF761FA4FF46E
:1021F0000070A749C1F8100CFEF75AFA10BD10B5CF
:102200004FF48070A4490860FEF752FA4FF4007052
:102210009F49C1F8140CFEF74BFA4FF480709B49AC
:102220000860FEF745FA4FF480709949C1F8140C24
:10223000FEF73EFA10BD10B54FF480709649086065
:10224000FEF736FA4FF400709149C1F8100CFEF712
:102250002FFA4FF480708D490860FEF729FA4FF489
:1022600080708B49C1F8140CFEF722FA10BD10B52E
:102270004FF4807088490860FEF71AFA4FF4007036
:102280008349C1F8100CFEF713FA4FF480707F49B0
:102290000860FEF70DFA7E48D0F8080C10F4007FB5
:1022A00007D04FF480707C490860FEF701FA0020E7
:1022B00010BD4FF4807078490860FEF7F9F90120ED
:1022C000F6E770B5044608251BE04FF480707249AC
:1022D0000860FEF7EDF914F0800F04D04FF40070A1
:1022E0006A49086003E04FF400706B4908606006BB
:1022F000040EFEF7DDF94FF4807064490860FEF7C4
:10230000D7F92800A5F10101CDB2DED14FF48070DC
:102310006149086070BD2DE9F04180460D461646C2
:102320001F46FFF723FF10B90020BDE8F0814046AB
:10233000FFF7C7FFFFF79BFF18B9FFF744FF002027
:10234000F3E72846FFF7BDFFFFF791FF18B9FFF746
:102350003AFF0020E9E700240AE0385DFFF7B1FF0B
:10236000FFF785FF18B9FFF72EFF0020DDE7641C9B
:10237000B442F2DBFFF727FF0120D6E770B508254E
:102380000024A8014149086015E06006040E4FF4DE
:10239000807041490860FEF78BF94FF480703C492A
:1023A000C1F8100CFEF784F93A48006810F4007F79
:1023B00001D044F001042800A5F10101CDB2E4D11F
:1023C0004FF4807034490860204670BD2DE9F0411B
:1023D00007460E4614461D46FFF7C8FE10B90020FA
:1023E000BDE8F0813846FFF76CFFFFF740FF18B9F2
:1023F000FFF7E9FE0020F3E73046FFF762FFFFF743
:1024000036FFFFF7B3FE781CC0B2FFF75AFFFFF7A5
:102410002EFF0CE0FFF7B2FF2870012C02D1FFF76E
:102420000AFF01E0FFF7EBFE6D1C601EC4B2002C3A
:10243000F0D1FFF7C8FE0120D2E72DE9F0410446B4
:102440000D4616461F466106080E3B463246294693
:10245000FFF761FF10B10020BDE8F0814FF0FF30C1
:10246000FAE72DE9F04104460D4616461F4661067F
:10247000080E3B4632462946FFF7A8FF10B1002060
:10248000BDE8F0814FF0FF30FAE70000100C01408A
:1024900000000140080C0140140C014010B54FF43D
:1024A0000060C64908604FF48060C549C1F8100C4F
:1024B000FEF7FEF8C348006808B9012000E00020DC
:1024C00010F4006F01D0002010BD4FF40060BE4931
:1024D0000860FEF7EDF8BA48D0F8080C10F4006F69
:1024E00001D00020F0E74FF40060B7490860FEF724
:1024F000DFF80120E8E710B54FF48060B2490860CA
:10250000FEF7D6F84FF40060AD49C1F8140CFEF7A1
:10251000CFF84FF48060A9490860FEF7C9F84FF47E
:102520000060A749C1F8100CFEF7C2F810BD10B545
:102530004FF48060A4490860FEF7BAF84FF40060D9
:102540009F49C1F8140CFEF7B3F84FF480609B4923
:102550000860FEF7ADF84FF480609949C1F8140C9B
:10256000FEF7A6F810BD10B54FF4806096490860DC
:10257000FEF79EF84FF400609149C1F8100CFEF789
:1025800097F84FF480608D490860FEF791F84FF49A
:1025900080608B49C1F8140CFEF78AF810BD10B5A5
:1025A0004FF4806088490860FEF782F84FF40060BD
:1025B0008349C1F8100CFEF77BF84FF480607F4927
:1025C0000860FEF775F87E48D0F8080C10F4006F2C
:1025D00007D04FF480607C490860FEF769F800205E
:1025E00010BD4FF4806078490860FEF761F8012063
:1025F000F6E770B5044608251BE04FF48060724989
:102600000860FEF755F814F0800F04D04FF4006016
:102610006A49086003E04FF400606B490860600697
:10262000040EFEF745F84FF4806064490860FEF739
:102630003FF82800A5F10101CDB2DED14FF4806052
:102640006149086070BD2DE9F04180460D4616468F
:102650001F46FFF723FF10B90020BDE8F081404678
:10266000FFF7C7FFFFF79BFF18B9FFF744FF0020F4
:10267000F3E72846FFF7BDFFFFF791FF18B9FFF713
:102680003AFF0020E9E700240AE0385DFFF7B1FFD8
:10269000FFF785FF18B9FFF72EFF0020DDE7641C68
:1026A000B442F2DBFFF727FF0120D6E770B508251B
:1026B000002428024149086015E06006040E4FF42A
:1026C000806041490860FDF7F3FF4FF480603C49AA
:1026D000C1F8100CFDF7ECFF3A48006810F4006FE9
:1026E00001D044F001042800A5F10101CDB2E4D1EC
:1026F0004FF4806034490860204670BD2DE9F041F8
:1027000007460E4614461D46FFF7C8FE10B90020C6
:10271000BDE8F0813846FFF76CFFFFF740FF18B9BE
:10272000FFF7E9FE0020F3E73046FFF762FFFFF70F
:1027300036FFFFF7B3FE781CC0B2FFF75AFFFFF772
:102740002EFF0CE0FFF7B2FF2870012C02D1FFF73B
:102750000AFF01E0FFF7EBFE6D1C601EC4B2002C07
:10276000F0D1FFF7C8FE0120D2E72DE9F041044681
:102770000D4616461F466106080E3B463246294660
:10278000FFF761FF10B10020BDE8F0814FF0FF308E
:10279000FAE72DE9F04104460D4616461F4661064C
:1027A000080E3B4632462946FFF7A8FF10B100202D
:1027B000BDE8F0814FF0FF30FAE70000100C014057
:1027C00000000140080C0140140C014010B54FF40A
:1027D0000040C64908604FF48040C549C1F8100C5C
:1027E000FDF766FFC348006808B9012000E000203B
:1027F00010F4004F01D0002010BD4FF40040BE493E
:102800000860FDF755FFBA48D0F8080C10F4004FE7
:1028100001D00020F0E74FF40040B7490860FDF711
:1028200047FF0120E8E710B54FF48040B249086047
:10283000FDF73EFF4FF40040AD49C1F8140CFDF721
:1028400037FF4FF48040A9490860FDF731FF4FF48E
:102850000040A749C1F8100CFDF72AFF10BD10B5C4
:102860004FF48040A4490860FDF722FF4FF4004078
:102870009F49C1F8140CFDF71BFF4FF480409B49A2
:102880000860FDF715FF4FF480409949C1F8140C1A
:10289000FDF70EFF10BD10B54FF48040964908605B
:1028A000FDF706FF4FF400409149C1F8100CFDF709
:1028B000FFFE4FF480408D490860FDF7F9FE4FF4AC
:1028C00080408B49C1F8140CFDF7F2FE10BD10B525
:1028D0004FF4804088490860FDF7EAFE4FF400405D
:1028E0008349C1F8100CFDF7E3FE4FF480407F49A7
:1028F0000860FDF7DDFE7E48D0F8080C10F4004FAC
:1029000007D04FF480407C490860FDF7D1FE0020DD
:1029100010BD4FF4804078490860FDF7C9FE0120E2
:10292000F6E770B5044608251BE04FF48040724975
:102930000860FDF7BDFE14F0800F04D04FF4004096
:102940006A49086003E04FF400406B490860600684
:10295000040EFDF7ADFE4FF4804064490860FDF7BA
:10296000A7FE2800A5F10101CDB2DED14FF48040D1
:102970006149086070BD2DE9F04180460D4616465C
:102980001F46FFF723FF10B90020BDE8F081404645
:10299000FFF7C7FFFFF79BFF18B9FFF744FF0020C1
:1029A000F3E72846FFF7BDFFFFF791FF18B9FFF7E0
:1029B0003AFF0020E9E700240AE0385DFFF7B1FFA5
:1029C000FFF785FF18B9FFF72EFF0020DDE7641C35
:1029D000B442F2DBFFF727FF0120D6E770B50825E8
:1029E000002428034149086015E06006040E4FF4F6
:1029F000804041490860FDF75BFE4FF480403C4950
:102A0000C1F8100CFDF754FE3A48006810F4004F6E
:102A100001D044F001042800A5F10101CDB2E4D1B8
:102A20004FF4804034490860204670BD2DE9F041E4
:102A300007460E4614461D46FFF7C8FE10B9002093
:102A4000BDE8F0813846FFF76CFFFFF740FF18B98B
:102A5000FFF7E9FE0020F3E73046FFF762FFFFF7DC
:102A600036FFFFF7B3FE781CC0B2FFF75AFFFFF73F
:102A70002EFF0CE0FFF7B2FF2870012C02D1FFF708
:102A80000AFF01E0FFF7EBFE6D1C601EC4B2002CD4
:102A9000F0D1FFF7C8FE0120D2E72DE9F04104464E
:102AA0000D4616461F466106080E3B46324629462D
:102AB000FFF761FF10B10020BDE8F0814FF0FF305B
:102AC000FAE72DE9F04104460D4616461F46610619
:102AD000080E3B4632462946FFF7A8FF10B10020FA
:102AE000BDE8F0814FF0FF30FAE70000100C014024
:102AF00000000140080C0140140C01402DE9FF5F6B
:102B0000824689464FF0000BD84637E05AF8280035
:102B100005F020FF04469C4A9C4B07F091FD0646B9
:102B20009B4A9C4B05F0C6FD00229B4BCDE9000162
:102B300005F01BFDCDE9020105F04AFF49F8280028
:102B400059F82800954905F05FFF05D359F828008A
:102B5000934905F063FF06D2012000FA08F040EA2D
:102B60000B0000F0FF0B8F4A52F8281059F828008C
:102B700005F02DFC49F8280008F10108B8F1050F0F
:102B8000C4DB584604B0BDE8F09F2DE9F04F87B094
:102B900085480369C268CDE90023836842680168FB
:102BA00082A006F017F94FF0000B17E07E4951F8AC
:102BB0002B0005F07EFE80464FF066328A4B05F012
:102BC00079FD06460022894B05F0E5FD044605F037
:102BD000FFFE02A941F82B000BF1010BBBF1050F21
:102BE000E4DB834902A8FFF789FF8246BAF1000FB0
:102BF00006D0804880F800A051467FA006F0EAF891
:102C000007B0BDE8F08F2DE9F04F8BB08046002073
:102C10000A9007900890099004900590069004A9E6
:102C200007A8FEF7D1FF83467E480078401C7D4907
:102C30000870084600780A2190FBF1F201FB1200AF
:102C400080BB002077490870099805F083FE044690
:102C50000D46089805F07EFE06460F46079805F0DB
:102C600079FE814602460B466FA0CDE90067CDE9AB
:102C7000024506F0AFF8069805F06CFE04460D46D6
:102C8000059805F067FE06460F46049805F062FEBB
:102C9000814602460B466CA0CDE90067CDE90245AE
:102CA00006F098F8BBF1000F06D1424604A907A828
:102CB00000F0F6F80A9001E000200A900A980BB0A4
:102CC000BDE8F08F2DE9F04F89B082468B4666480B
:102CD000FEF76AFF65480078401C644908700846A2
:102CE00000780A2190FBF1F201FB1200B8BB002032
:102CF0005E49087080462FE0012000FA08F05C4928
:102D00000978084226D108EB4801574A02EB8101B5
:102D1000886805F01FFE04460D4608EB4801524A3C
:102D200002EB8101486805F015FE06460F4608EBE8
:102D300048014D4A52F8210005F00CFE02460B46B0
:102D4000CDE90067CDE90245CDE90401414649A03E
:102D500006F040F808F10108B8F1070FCCDB5B463C
:102D600006AA4149224800F026FD8146BAF1020F29
:102D700006D1B9F1000F03D106A807C8FEF73BF84A
:102D800009B0BDE8F08F0000C976BE9F1A2FEDBFD5
:102D90008104C58F317721400000D03F00002041E1
:102DA00000004842BC0000200002002061766572ED
:102DB000616765206164632063686E20317E353A07
:102DC000203078253034782C3078253034782C3009
:102DD00078253034782C3078253034782C307825AC
:102DE0003034780D0A00000066660A400000A040FA
:102DF000680E002001000020706C6561736520631F
:102E00006865636B20696E6672617265642C6572B9
:102E1000726F7220636F6465A3BA307825303278A0
:102E20000D0A0000D0000020726967687420616399
:102E300063656C3A252E32662020252E32662020CE
:102E4000252E32660D0A00006C65667420206163D1
:102E500063656C3A252E32662020252E32662020AE
:102E6000252E32660D0A00007C0E0020D1000020C5
:102E700000000020646D70206E756D2025643A702E
:102E80006974636820252E326620726F6C6C202571
:102E90002E32662079617720252E32660D0A0000D9
:102EA0002DE9F04106460F4690460020C8F8000084
:102EB0006D4890F90000401C052864D2DFE800F05E
:102EC000031323445400B86805F044FD044600226F
:102ED000664B05F055FD05D263480078401C40B2B2
:102EE0006149087050E0B86805F034FD0446604A56
:102EF000604B05F059FD05D25B480078401C40B29C
:102F00005949087040E0B86805F024FD0446584A65
:102F1000584B05F035FD16D25748007868B157492F
:102F2000B868096805F070FD07D2012052490870A1
:102F3000C8F800003120BDE8F0814B480078401C03
:102F400040B2494908701FE0B86805F003FD044627
:102F5000474A484B05F028FD05D243480078401CFD
:102F600040B2414908700FE04449B868096805F06B
:102F70004BFD07D2FF203C4908700120C8F8000033
:102F80003220D8E700E000BF00BF3D4890F90000C4
:102F9000401C05285ED2DFE800F0031323415100F6
:102FA000B06805F0D7FC04460022304B05F0E8FC81
:102FB00005D233480078401C40B2314908704AE0DD
:102FC000B06805F0C7FC0446294A2A4B05F0ECFC22
:102FD00005D22B480078401C40B2294908703AE0DD
:102FE000B06805F0B7FC0446214A224B05F0C8FC46
:102FF00013D22448007850B92349B068096805F015
:1030000003FD04D201201F490870312093E71C48BA
:103010000078401C40B21A4908701CE0B06805F006
:1030200099FC0446124A134B05F0BEFC05D2144825
:103030000078401C40B2124908700CE01249B06898
:10304000096805F0E1FC04D2FF200D490870322028
:1030500071E700E000BF00BF0B49B0680860074996
:10306000B8680860002066E7D400002000001E4019
:103070009A99999999992340D6000020DC00002064
:10308000D5000020D7000020D80000200FB599B04F
:103090001E98012804D0022850D003284DD15DE1AC
:1030A0001C980D9005F056FC0022FF4BCDE90E0157
:1030B00005F000FBFD4AFE4BCDE9100105F06BFB6E
:1030C000CDE9120107F066FACDE9140105F080FCA4
:1030D00016901C980D9005F03DFC0022F24BCDE9B6
:1030E0000E0105F0E7FAF14AF14BCDE9100105F0C8
:1030F00052FBCDE9120107F08FFF81F00041CDE9CD
:10310000140105F065FC17901A980D9005F022FC4B
:103110000022E54BCDE90E0105F0CCFAE34AE44B81
:10312000CDE9100105F037FBCDE9120107F0F2FF00
:10313000CDE9140105F04CFC18902AE21B9805908B
:1031400005F008FC0022D84BCDE9060105F0B2FAE3
:10315000D64AD74BCDE9080105F01DFBCDE90A01A0
:1031600007F0D8FFCDE90E011A98019005F0F2FBA7
:103170000022CD4BCDE9020105F09CFACB4ACC4BA5
:10318000CDE9040105F007FBCDE9060107F044FF96
:10319000CDE90A011C98019005F0DCFB0022C24B2E
:1031A000CDE9020105F086FAC04AC14BCDE9040120
:1031B00005F0F1FACDE9060107F0ECF9CDE90801D7
:1031C000DDE90A2305F076FACDE90C01DDE90E23ED
:1031D00005F070FACDE912011C98099005F0BAFBD0
:1031E0000022B14BCDE90A0105F064FAAF4AB04BB9
:1031F000CDE90C0105F0CFFACDE90E0107F00CFF87
:10320000CDE91001DDE9122305F04EFACDE91401F4
:1032100005F0DEFB16901B98059005F09BFB002245
:10322000A14BCDE9060105F045FAA04AA04BCDE936
:10323000080105F0B0FACDE90A0107F06BFFCDE90E
:103240000E011A98019005F085FB0022964BCDE9FE
:10325000020105F02FFA954A954BCDE9040105F0DE
:103260009AFACDE9060107F0D7FECDE90A011C98CC
:10327000019005F06FFB00228B4BCDE9020105F0B8
:1032800019FA8A4A8A4BCDE9040105F084FACDE99E
:10329000060107F0C1FECDE90801DDE90A2305F0CA
:1032A00009FACDE90C01DDE90E2305F003FACDE9B9
:1032B00012011C98099005F04DFB00227A4BCDE9D4
:1032C0000A0105F0F7F9794A794BCDE90C0105F0CF
:1032D00062FACDE90E0107F05DF9CDE91001DDE9F3
:1032E000122305F042F9CDE9140105F071FB1790A6
:1032F0001B98099005F02EFB00226B4BCDE90A01CB
:1033000005F0D8F9694A6A4BCDE90C0105F043FA9A
:10331000CDE90E0107F0FEFECDE912011A980990E1
:1033200005F018FB0022604BCDE90A0105F0C2F957
:103330005E4A5F4BCDE90C0105F02DFACDE90E0197
:1033400007F028F9CDE91001DDE9122305F0B2F903
:10335000CDE9140105F03CFB18901AE11B9805908B
:1033600005F0F8FA0022504BCDE9060105F0A2F96C
:103370004E4A4F4BCDE9080105F00DFACDE90A019F
:1033800007F0C8FECDE90E011A98019005F0E2FAA7
:103390000022454BCDE9020105F08CF9434A444B2C
:1033A000CDE9040105F0F7F9CDE9060107F034FE97
:1033B000CDE90A011C98019005F0CCFA00223A4BA5
:1033C000CDE9020105F076F9384A394BCDE904011F
:1033D00005F0E1F9CDE9060107F0DCF8CDE90801D7
:1033E000DDE90A2305F066F9CDE90C01DDE90E23DC
:1033F00005F0D1F9CDE912011C98099005F0AAFA5F
:103400000022294BCDE90A0105F054F9274A284B3F
:10341000CDE90C0105F0BFF9CDE90E0107F0FCFD87
:1034200081F00041CDE91001DDE9122305F03CF9FE
:10343000CDE9140105F0CCFA16901B98059005F023
:1034400089FA0022184BCDE9060105F033F9174A35
:10345000174BCDE9080105F09EF9CDE90A0107F007
:1034600059FECDE90E011A98019005F073FA002279
:103470000D4BCDE9020105F01DF90C4A0C4BCDE9CD
:10348000040105F088F9CDE9060107F0C5FDCDE995
:103490000A011C98019005F05DFA0022024BCDE96B
:1034A000020105F007F905E000806640182D44543C
:1034B000FB210940FD4AFE4BCDE9040105F06BF903
:1034C000CDE9060107F0A8FDCDE90801DDE90A23F1
:1034D00005F0F0F8CDE90C01DDE90E2305F05BF90C
:1034E000CDE912011C98099005F034FA0022F14B45
:1034F000CDE90A0105F0DEF8EC4AED4BCDE90C010F
:1035000005F049F9CDE90E0107F044F881F00041DA
:10351000CDE91001DDE9122305F027F8CDE914010A
:1035200005F056FA17901B98099005F013FA00223F
:10353000E04BCDE90A0105F0BDF8DC4ADC4BCDE9F2
:103540000C0105F028F9CDE90E0107F0E3FDCDE906
:1035500012011A98099005F0FDF90022D54BCDE92A
:103560000A0105F0A7F8D14AD14BCDE90C0105F0CD
:1035700012F9CDE90E0107F00DF8CDE91001DDE9F2
:10358000122305F008F9CDE9140105F021FA18908D
:1035900000BF00BF16A90EC919980EC01DB000BD0E
:1035A0003FB58BB01C460123009308A80BA90EC998
:1035B000FFF76CFDC0480899006804F060FF0546FD
:1035C000BE480168284604F002FFBC490860BA48BA
:1035D0000999006804F053FF0546B8484168284639
:1035E00004F0F5FEB5494860B3480A99006804F054
:1035F00046FF0546B1488168284604F0E8FEAF4919
:1036000088600223009305A80BA90EC9FFF73EFDB1
:10361000AB480599006804F032FF0546A7480168E9
:10362000284604F0D4FEA5490860A548079900681B
:1036300004F025FF0546A1488168284604F0C7FE2E
:103640009E4988606CB19E480699006804F017FF97
:1036500005469A484168284604F0B9FE97494860F3
:103660000CE097480699006804F009FF0546934866
:103670004168284604F000FF904948600323009306
:1036800002A80BA90EC9FFF701FD8E480299006838
:1036900004F0F5FE054689480168284604F097FEC7
:1036A0008649086087480399006804F0E8FE0546EB
:1036B00082484168284604F08AFE80494860814873
:1036C0000499006804F0DBFE05467C4881682846C2
:1036D00004F07DFE7949886008460FB030BD1FB503
:1036E00084B01C460323009304A90EC901A8FFF768
:1036F000CDFC2046019904F0C2FE704908602046C6
:10370000029904F0BCFE6D4948602046039904F01C
:10371000B6FE6A498860084608B010BD3FB587B05C
:103720001C460123009304A807A90EC9FFF7AEFCAD
:1037300065480499006804F0A2FE60490860624888
:103740000599006804F09BFE5C4948605E48069954
:10375000006804F094FE594988600223009301A890
:1037600007A90EC9FFF792FC2046019904F087FED5
:10377000054652480168284604F029FE4F49086072
:103780002046029904F07BFE05464C4841682846D5
:1037900004F01DFE494948602046039904F06FFE7D
:1037A000054646488168284604F011FE4349886072
:1037B00008460BB030BD2DE9F04707460E461546CA
:1037C0009946002028606860A860B9F1000F6CD0AD
:1037D000FB68D6E90A12706AFFF781FF8046002471
:1037E00008E058F8241055F8240004F0F0FD45F8DE
:1037F0002400641C032CF4DB3B69D6E90D12306B0A
:10380000FFF76DFF8046002408E058F8241055F8B3
:10381000240004F0DCFD45F82400641C032CF4DBD8
:103820000123D6E91312B06CFFF7BAFE80460024DC
:1038300008E058F8241055F8240004F0C8FD45F8B5
:103840002400641C032CF4DB7B68D6E90412F068C6
:10385000FFF745FF8046002408E058F8241055F88B
:10386000240004F006FE45F82400641C032CF4DB5D
:10387000BB68D6E90712B069FFF731FF8046002424
:1038800008E058F8241055F8240004F0F2FD45F83B
:103890002400641C032CF4DB0123D6E91012F06B26
:1038A000FFF77EFE8046002419E02EE0182D4454D8
:1038B000FB21094000806640E0000020D00E00207F
:1038C000E4000020E8000020EC00002058F824105C
:1038D00055F8240004F0CDFD45F82400641C032CA9
:1038E000F4DB3B6896E80700FFF718FF80460024EA
:1038F00008E058F8241055F8240004F0BAFD45F803
:103900002400641C032CF4DB8BE07B68D6E90412F2
:10391000F068FFF7E4FE8046002408E058F8241021
:1039200055F8240004F053FD45F82400641C032CD2
:10393000F4DBBB68D6E90712B069FFF7D0FE80461A
:10394000002408E058F8241055F8240004F03FFD46
:1039500045F82400641C032CF4DB0023D6E9101284
:10396000F06BFFF71DFE8046002408E058F8241095
:1039700055F8240004F02BFD45F82400641C032CAA
:10398000F4DBFB68D6E90A12706AFFF7A8FE8046EE
:10399000002408E058F8241055F8240004F069FDCC
:1039A00045F82400641C032CF4DB3B69D6E90D12B6
:1039B000306BFFF794FE8046002408E058F824108E
:1039C00055F8240004F055FD45F82400641C032C30
:1039D000F4DB0123D6E91312B06CFFF7E1FD80465A
:1039E000002408E058F8241055F8240004F041FDA4
:1039F00045F82400641C032CF4DB3B6896E80700C0
:103A0000FFF78CFE8046002408E058F8241055F893
:103A1000240004F0DCFC45F82400641C032CF4DBD7
:103A200000BF0020BDE8F0870648804706480047F1
:103A3000FEE7FEE7FEE7FEE7FEE7FEE7FEE7FEE75E
:103A4000FEE7FEE7153B0008ED000008002100201E
:103A5000674A126842F48032654B1A6000BF644ABC
:103A6000126802F40030491C10B9B1F5A06FF6D10C
:103A70005F4A126812F4003F01D0012000E00020EC
:103A8000012842D15B4A126842F01002594B1A6079
:103A90001A46126822F003021A601A46126842F0AF
:103AA00002021A60524A5268514B5A601A465268D2
:103AB0005A601A46526842F480625A601A46526846
:103AC00022F47C125A601A46526842F4E8125A6094
:103AD0001A46126842F080721A6000BF444A1268A7
:103AE00012F0007FFAD0424A526822F00302404BA3
:103AF0005A601A46526842F002025A6000BF3C4ABD
:103B0000526802F00C02082AF9D1704710B5FFF78D
:103B10009DFF10BD10B53648006840F001003449E3
:103B20000860084640683449084031494860084602
:103B30000068324908402E4908600846006820F4B1
:103B4000802008600846406820F4FE0048604FF47A
:103B50001F008860FFF7DAFF4FF000602849086017
:103B600010BD10B5002100200022214B5B6803F03E
:103B70000C0121B1042906D0082928D107E0214BE6
:103B8000214C236027E01F4B1F4C236023E0184B80
:103B90005B6803F47010164B5B6803F480320223F9
:103BA00003EB904022B9194B4343174C23600DE0BF
:103BB0000F4B5B6813F4003F04D0144B4343124C8B
:103BC000236003E00F4B43430F4C236003E00D4B96
:103BD0000D4C236000BF00BF054B5B68C3F30313AC
:103BE0000B4CE15C084B1B68CB40074C236010BDBD
:103BF00000100240002002400000FFF8FFFFF6FE28
:103C000008ED00E000127A00F000002000093D00FD
:103C1000F400002036490143364A1160704770B500
:103C2000002100230F22C4784CB3324C246804F4E2
:103C3000E064C4F5E0644FEA1421C1F1040322FA00
:103C400001F2447804FA03F1847804EA020444EAB5
:103C500001014FEA0111284C0678A155047804F0BF
:103C60001F054FF0010404FA05F405784FEA6515C5
:103C70004FF0E02606EB8505C5F8004109E0047821
:103C800004F01F050124AC401C4D0678761145F860
:103C9000264070BD1A4A0A4002431A4B1A60704708
:103CA00041B1194A126842EA00024FF0E023C3F81A
:103CB000102D07E0144A126822EA00024FF0E023B8
:103CC000C3F8102D7047042808D14FF0E02109698E
:103CD00041F004014FF0E022116107E04FF0E021D4
:103CE000096921F004014FF0E022116170470000E2
:103CF0000000FA050CED00E000E400E080E100E0E7
:103D000080FFFF1F08ED00E010ED00E010B5044655
:103D1000F848844208D10121401500F044FD0021FB
:103D2000601500F040FD17E0F348844208D10121FE
:103D3000001500F038FD0021201500F034FD0BE0E7
:103D4000EE48844208D10121C80300F02CFD002177
:103D50004FF4004000F027FD10BD30B502460020B2
:103D600000235068E64C20400D790C6844EA052495
:103D7000204350609068E34C2040D1E902542C432A
:103D80004D7944EA450420439060D06A20F47000E5
:103D90000C7C641EE4B2234340EA0350D06230BD81
:103DA00000210160017141718160C16001210174D4
:103DB000704721B1826842F00102826003E08268AC
:103DC00022F001028260704721B1826842F4807261
:103DD000826003E0826822F480728260704710B5CE
:103DE0000023CBB21AB144681C43446002E044682B
:103DF0009C43446010BD816841F0080181607047B8
:103E0000014600208A6812F0080F01D0012000E06E
:103E100000207047816841F00401816070470146CD
:103E200000208A6812F0040F01D0012000E0002079
:103E3000704721B1826842F4A002826003E0826888
:103E400022F4A00282607047014600208A6812F4C2
:103E5000800F01D0012000E00020704710B50A4615
:103E600000210023416821F46041531E41EA43319F
:103E7000416010BD21B1426842F40062426003E03B
:103E8000426822F4006242607047F0B504460D4675
:103E900000200021092D11DDE068A5F10A0606EBDE
:103EA0004607072606FA07F18843A5F10A0606EB3E
:103EB000460603FA06F10843E0600CE0206905EBD2
:103EC0004507072606FA07F1884305EB450603FA7E
:103ED00006F108432061072A0FDA606B561E06EBD5
:103EE00086071F2606FA07F18843561E06EB86064C
:103EF00005FA06F10843606322E00D2A0FDA206B11
:103F0000D61F06EB86071F2606FA07F18843D61F41
:103F100006EB860605FA06F10843206310E0E06A26
:103F2000A2F10D0606EB86071F2606FA07F1884365
:103F3000A2F10D0606EB860605FA06F10843E062DB
:103F4000F0BD21B1826842F48012826003E0826891
:103F500022F48012826070470146C86C80B27047BC
:103F600069480068704721B1426842F4806242604B
:103F700003E0426822F480624260704721B14268E7
:103F800042F48052426003E0426822F48052426070
:103F900070470A460021816821F4E04111438160A5
:103FA000704721B1826842F40042826003E0826877
:103FB00022F400428260704721B1826842F402120A
:103FC000826003E0826822F4021282607047014638
:103FD00000208A6812F4001F01D0012000E00020B8
:103FE0007047F0B504461546002000220026092936
:103FF00011DDE068A1F10A0707EB470C072707FA74
:104000000CF29043A1F10A0707EB470703FA07F206
:104010001043E0600CE0206901EB410C072707FA30
:104020000CF2904301EB410703FA07F210432061C1
:10403000A06BC0F30156EF1C06F1010CA7EB0C07B7
:1040400007EB870C1F2707FA0CF29043EF1C06F1D1
:10405000010CA7EB0C0707EB870701FA07F21043E7
:10406000A063F0BD10B50A4600210023816B21F446
:104070004011531E41EA0351816310BD10B5002366
:1040800003460B441A6010BD02460023134601F19B
:1040900028000344186880B270470A46002141682E
:1040A0001A4B194011434160704741628262704768
:1040B0000A460021416821F01F0111434160704709
:1040C00038B11349096841F40001124AC2F80814D2
:1040D00006E00F49096821F400010E4AC2F80814ED
:1040E00070470246002013680B4201D0012000E017
:1040F000002070470024014000280140003C01409E
:10410000FFFEF0FFFDF7F1FF4C240140FFFD3FFFF4
:104110000824014000200140CA430260704770B586
:1041200002460020002300240B125568CEB205EA97
:10413000060415681D4202D00CB1012000E00020E9
:1041400070BD00220A12D3430360704710B50446C5
:10415000CA48844208D10121042000F024FB002138
:10416000042000F020FB46E0C548844208D101212C
:10417000082000F018FB0021082000F014FB3AE0B2
:10418000C048844208D10121102000F00CFB00211E
:10419000102000F008FB2EE0BB48844208D101212A
:1041A000202000F000FB0021202000F0FCFA22E09B
:1041B000B648844208D10121402000F0F4FA0021E1
:1041C000402000F0F0FA16E0B148844208D1012105
:1041D000802000F0E8FA0021802000F0E4FA0AE0F4
:1041E000AC48844207D10121801500F0DCFA00219F
:1041F000A01500F0D8FA10BD10B50121084600F056
:10420000D2FA0021012000F0CEFA10BD2DE9F041D4
:10421000024600250026002000230024002791F8F4
:1042200003C00CF00F0591F803C01CF0100F03D071
:1042300091F802C04CEA0505B1F800C01CF0FF0F70
:1042400031D0146800202BE04FF0010C0CFA00F381
:10425000B1F800C00CEA03069E4220D183004FF063
:104260000F0C0CFA03F7BC4305FA03FC4CEA0404F8
:1042700091F803C0BCF1280F06D14FF0010C0CFAE5
:1042800000FCC2F814C00AE091F803C0BCF1480F6A
:1042900005D14FF0010C0CFA00FCC2F810C0401C14
:1042A0000828D1D31460B1F800C0BCF1FF0F34DD91
:1042B000546800202EE000F1080C4FF0010808FAC5
:1042C0000CF3B1F800C00CEA03069E4221D1830032
:1042D0004FF00F0C0CFA03F7BC4305FA03FC4CEA51
:1042E000040491F803C0BCF1280F05D100F1080CBB
:1042F00008FA0CF8C2F8148091F803C0BCF1480F1A
:1043000007D100F1080C4FF0010808FA0CF8C2F8C8
:104310001080401C0828CED35460BDE8F0814FF6D1
:10432000FF710180022181700421C1707047024633
:10433000002093680B4201D0012000E0002070476C
:104340000146886880B2704702460020D3680B425D
:1043500001D0012000E0002070470146C86880B20B
:10436000704701617047416170470AB1016100E027
:1043700041617047C16070474FF480320A438261E7
:104380008161826182698269704702460020424BE6
:1043900018684FF68073184040EA021008433E4BFD
:1043A000186070473D49C8617047F0B50A46002360
:1043B00000240021002500F00046B6F1004F02D194
:1043C000354EF16901E0344E7168C0F3034583B2A4
:1043D00000F44016B6F5401F08D121F070612E4E52
:1043E000766826F070662C4F7E6012E000F480162E
:1043F000B6F5801F06D1032606FA05F4A14341F065
:10440000706106E0460D360103FA06F6B14341F04D
:10441000706122B1460D360103FA06F6314300F011
:104420000046B6F1004F02D11B4EF16101E01A4E79
:104430007160F0BD30B500228B071C0F0F2303FA0B
:1044400004F2154B08338C1053F824309343124C6C
:1044500008348D1044F8253023468C1053F824304E
:104460008C07240F00FA04F423430B4C08348D10FE
:1044700044F8253030BD0A49086070470008014003
:10448000000C0140001001400014014000180140E0
:10449000001C0140002001400000014000002042BB
:1044A000DC002042DB48006840F00100D949086088
:1044B00008464068D8490840D64948600846006820
:1044C000D6490840D34908600846006820F4802097
:1044D00008600846406820F4FE0048604FF41F0062
:1044E00088607047CB49096821F48031C94A11605E
:1044F0001146096821F480211160B0F5803F03D096
:10450000B0F5802F0ED106E0C249096841F4803130
:10451000C04A116007E0BF49096841F4A021BD4AC3
:10452000116000E000BF00BF704710B501460022D7
:10453000002300204A11012A02D1B64C236806E06C
:10454000022A02D1B34C236A01E0B24C636A01F043
:104550001F02012494401C4201D0012000E00020F1
:1045600010BD70B500240025002600BF3120FFF7E4
:10457000DCFF0646641CB4F5A06F01D0002EF5D018
:104580003120FFF7D2FF08B1012500E000252846C1
:1045900070BD014600209F4A106820F0F80040EAF4
:1045A000C100106070479E490860704702460020B5
:1045B000984B586820F47C1042EA01031843954B4D
:1045C0005860704796490866704701460020914A36
:1045D000506820F003000843506070478D484068E1
:1045E00000F00C007047014600208A4A506820F015
:1045F000F00008435060704701460020854A50682B
:1046000020F4E06008435060704701460020814A72
:10461000506820F4605040EAC1005060704729B1F2
:104620007C4A527A02437B4B5A7206E0794A527AAC
:10463000C343DBB21A40774B5A727047794908601E
:10464000704701460020734A506820F440400843F8
:10465000506070470021744A11706E4A82F8201031
:10466000012802D0042808D103E001216E4A11700C
:1046700004E005216C4A117000E000BF00BF7047E4
:104680006A49086070476349096A0143614A1162D7
:10469000704767490860704730B500210022002448
:1046A00000235C4D6D6805F00C0121B1042905D093
:1046B000082923D105E05F4D056022E05D4D0560CE
:1046C0001FE0544D6D6805F47012524D6D6805F48D
:1046D0008034022505EB92421CB9574D55430560C5
:1046E0000BE04C4D6D6815F4003F03D0524D55431F
:1046F000056002E04F4D5543056002E04D4D0560F9
:1047000000BF00BF434D6D6805F0F00109094B4D36
:104710006B5C0568DD4045603E4D6D6805F4E06109
:10472000090A464D6B5C4568DD408560394D6D6812
:1047300005F46051C90A414D6B5C4568DD40C560B8
:10474000344D6D6805F44041890B3D4D6B5CC56887
:10475000B5FBF3F5056130BD29B12E4A526902431C
:104760002C4B5A6104E02B4A52698243294B5A610F
:10477000704729B1274A92690243264B9A6104E0A7
:10478000244A92698243234B9A61704729B1214A96
:10479000D26902431F4BDA6104E01E4AD2698243A8
:1047A0001C4BDA61704729B11A4AD2680243194B8F
:1047B000DA6004E0174AD2688243164BDA60704729
:1047C00029B1144A12690243124B1A6104E0114ADA
:1047D000126982430F4B1A6170471A49086070478B
:1047E0000F49C86470470B49C87170470948406A4F
:1047F00040F0807007494862704701460020054A32
:1048000092680A4201D0012000E00020704701496F
:1048100088727047001002400000FFF8FFFFF6FEAC
:1048200000004242D800424220100240800442422E
:104830003C04424200127A0000093D0004010020BD
:10484000140100204004424210B50446FC48844252
:1048500009D101218803FFF7A6FF00214FF4804012
:10486000FFF7A1FF32E0F748844209D10121480453
:10487000FFF7A6FF00214FF40030FFF7A1FF25E06E
:10488000F148844209D101218804FFF799FF0021F2
:104890004FF48020FFF794FF18E0EC48844209D1E0
:1048A0000121C804FFF78CFF00214FF40020FFF71F
:1048B00087FF0BE0E648844208D101210805FFF795
:1048C0007FFF00214FF48010FFF77AFF10BD2DE924
:1048D000F04786B005460E460024A24600BFA1461A
:1048E0000027B08900B100BF2F462C8A4CF6FF701C
:1048F0000440F08804432C82AC894EF6F310044047
:10490000B08831890843718908430443AC81AC8A7B
:104910004FF6FF400440B0890443AC8201A8FFF782
:10492000BBFEC748874202D1DDF810A001E0DDF8E8
:104930000CA0A88910F4004F08D00AEBCA0000EBC5
:104940000A1031684900B0FBF1F807E00AEBCA0031
:1049500000EB0A1031688900B0FBF1F86420B8FB65
:10496000F0F004012009642101FB1089A88910F4EA
:10497000004F08D0322000EBC900B0FBF1F000F08E
:104980000700044308E0322000EB09106421B0FB6B
:10499000F1F000F00F0004432C8106B0BDE8F08771
:1049A0004FF41651016000218180C18001810C21EA
:1049B000418100218181704710B502460020108A94
:1049C0004FF2FF0318400B884C8823438C88234305
:1049D000CC8823431843108210BD00210180418000
:1049E0008180C180704721B1828942F40052828166
:1049F00004E082894DF6FF731A4082817047F0B55A
:104A000003460024002600250020A1F510676A3F18
:104A100000D100BF1846C1F3421401F01F06012760
:104A200007FA06F5012C01D10C3004E0022C01D16B
:104A3000103000E014301AB107682F43076002E01D
:104A40000768AF430760F0BD10B51AB1838A0B4306
:104A5000838204E0838ACC43A4B22340838210BDC6
:104A6000028A4FF6F0731A400282028A0A430282D7
:104A7000704782894FF2FF731A40828182890A430C
:104A80008281704721B1828942F00202828104E072
:104A900082894FF6FD731A4082817047028A4FF671
:104AA000DF731A400282028A0A430282704721B1F0
:104AB000028A42F48042028204E0028A4BF6FF73CB
:104AC0001A4002827047C1F3080282807047014693
:104AD0008888C0F308007047818941F00101818115
:104AE0007047028BD2B20283028B42EA0122028318
:104AF0007047028B02F47F420283028B0A430283D7
:104B0000704721B1828A42F02002828204E0828AC8
:104B10004FF6DF731A408282704721B1828A42F0D9
:104B20001002828204E0828A4FF6EF731A4082827A
:104B3000704721B1828A42F00802828204E0828AB0
:104B40004FF6F7731A408282704721B1828942F48E
:104B50000042828103E08289C2F30E0282817047A3
:104B600021B1828A42F40062828204E0828A4FF29A
:104B7000FF731A4082827047828A4FF6FB731A4095
:104B80008282828A0A438282704721B1828A42F0FD
:104B90000202828204E0828A4FF6FD731A4082820A
:104BA000704702460020B1F5007F00D100BF138896
:104BB0000B4201D0012000E00020704701F4007298
:104BC000B2F5007F00D100BFCA430280704770B5C4
:104BD00002460024002300250020A1F510666A3E4D
:104BE00000D100BFC1F3421501F01F03012606FAF0
:104BF00003F3012D02D19689334006E0022D02D144
:104C0000168A334001E0968A33400C12012606FAD8
:104C100004F41688344013B10CB1012000E00020E8
:104C200070BD10B500220023A1F510646A3C00D1CC
:104C300000BF0A1201249440A3B2DC43048010BDDB
:104C4000003801400044004000480040004C004053
:104C50000050004001684FF6FE72114001600021D3
:104C6000016041608160C1608749884208D18649FE
:104C70000839496841F00F01834A083A516088E0D9
:104C800081491431884208D17F490839496841F087
:104C9000F0017D4A083A51607BE07B492831884227
:104CA00008D179490839496841F47061764A083A6F
:104CB00051606EE074493C31884208D1724908392C
:104CC000496841F47041704A083A516061E06E49A8
:104CD0005031884208D16C490839496841F4702143
:104CE000694A083A516054E067496431884208D102
:104CF00065490839496841F47001634A083A5160CE
:104D000047E061497831884208D15F4908394968EC
:104D100041F070615C4A083A51603AE05B49884270
:104D200008D1A0F10401096841F00F01584AC2F806
:104D300004142EE055491431884207D155490968B9
:104D400041F0F001524AC2F8041422E04F492831E0
:104D5000884207D14F49096841F470614C4AC2F852
:104D6000041416E049493C31884207D14949096891
:104D700041F47041464AC2F804140AE043495031F4
:104D8000884206D14349096841F47021404AC2F87B
:104D90000414704710B50022026847F6F0739A4376
:104DA0000C6A8B6823430C6923434C6923438C6949
:104DB0002343CC6923434C6A23438C6A23431A431D
:104DC0000260CB6843600B6883604B68C36010BDB2
:104DD0000021016041608160C160016141618161C8
:104DE000C161016241628162704721B1026842F093
:104DF0000102026004E002684FF6FE731A4002608E
:104E000070471AB103680B43036002E003688B43E9
:104E100003607047416070470146486880B2704740
:104E200001460020002211F0805F02D01A4B1A6860
:104E300001E0174B1A680A4201D0012000E000206F
:104E4000704710F0805F02D01249086001E01049FD
:104E50004860704701460020002211F0805F02D0B8
:104E60000D4B1A6801E00A4B1A680A4201D0012072
:104E700000E00020704710F0805F02D00549086014
:104E800001E00349486070470800024008040240FE
:104E900000000240040402400004024001460020D9
:104EA000FF4A106800F03800084310607047FC4962
:104EB000096821F00801FA4A1160114609680143A6
:104EC00011607047F649096821F01001F44A116039
:104ED00011460968014311607047F248F049486083
:104EE000F14848607047EF48ED494860EE48486037
:104EF0007047EB48006940F08000E949086170475D
:104F0000E748006940F08000E549086170470420E7
:104F1000E349C96801F00101012901D101200EE036
:104F2000DF49C96811F0040F01D0022007E0DC4915
:104F3000C96811F0100F01D0032000E00420704771
:104F400000B502460423FFF7E2FF034603E0FFF744
:104F5000DEFF0346521E012B01D1002AF7D102B910
:104F60000523184600BD30B5044604254FF4302013
:104F7000FFF7E6FF0546042D17D1C948006940F048
:104F80000200C749086108464461006940F04000DA
:104F900008614FF43020FFF7D3FF0546C048006991
:104FA00041F6FD710840BE490861284630BD10B584
:104FB00004244FF43020FFF7C3FF0446042C16D11D
:104FC000B748006940F00400B54908610846006927
:104FD00040F0400008614FF43020FFF7B1FF044675
:104FE000AF48006941F6FB710840AD4908612046B1
:104FF00010BD00B502460423FFF789FF034603E016
:10500000FFF785FF0346521E012B01D1002AF7D17D
:1050100002B90523184600BD10B504244FF4302012
:10502000FFF7E7FF0446042C16D19D48006940F0C5
:1050300004009B4908610846006940F0400008618F
:105040004FF43020FFF7D5FF04469548006941F63C
:10505000FB71084092490861204610BD002090492C
:10506000C96911F0020F01D0012000E00020704753
:1050700030B5A5250424FFF7F1FF00B100254FF45A
:105080003020FFF75DFF0446042C3BD1854884495E
:105090008860854888600846006940F02000086103
:1050A0000846006940F0400008614FF43020FFF7E7
:1050B00047FF0446042C1CD17948006941F6DF7192
:1050C0000840774908610846006940F0100008610F
:1050D000764805804FF40050FFF732FF0446052C58
:1050E00010D06F48006941F6EF7108406C490861C3
:1050F00008E0052C06D06A48006941F6EF710840C7
:1051000067490861204630BDF0B504460D460426C7
:105110000027F002FFF714FF0646042E22D1604854
:10512000006940F001005E4908612580F002FFF748
:1051300007FF0646042E0ED1A71C280C3880F0026B
:10514000FFF7FEFE06465648006941F6FE7108402C
:105150005349086106E05248006941F6FE71084073
:105160004F4908613046F0BD70B504460D4604262F
:10517000F002FFF7E5FE0646042E11D1484800690B
:1051800040F00100464908612580F002FFF7D8FE93
:1051900006464348006941F6FE71084040490861EF
:1051A000304670BD70B505460E460424E002FFF798
:1051B000C7FE0446042C17D13A48394988603A485A
:1051C00088600846006940F0100008612E80E00207
:1051D000FFF7B6FE0446052C06D03148006941F6BB
:1051E000EF7108402E490861204670BD2DE9F0435B
:1051F00004464FF6FF763746B046B1460425E443F1
:10520000E6B2C4F30727C4F307484FEA1469E8027B
:10521000FFF796FE0546042D3ED1224820498860BE
:10522000214888600846006940F010000861FF2EA0
:1052300006D01F4806804FF40050FFF781FE054658
:10524000042D08D1FF2F06D01A4807804FF40050D4
:10525000FFF776FE0546042D09D1B8F1FF0F06D001
:105260001548A0F80C88E802FFF76AFE0546042DF1
:1052700009D1B9F1FF0F06D00F48A0F80E98E80247
:10528000FFF75EFE0546052D06D00548006941F68C
:10529000EF710840024908612846BDE8F08300002C
:1052A0000020024023016745AB89EFCD00F8FF1FC6
:1052B00008F8FF1F0AF8FF1F00F0FF1F30B5054672
:1052C00004244FF43020FFF73BFE0446042C41D168
:1052D0005F4860498860604888600846006940F01F
:1052E000200008610846006940F0400008614FF462
:1052F0003020FFF725FE0446042C22D155480069D2
:1053000041F6DF710840534908610846006940F0E2
:10531000100008611DB100205049088002E0A5205E
:105320004E4908804FF43020FFF70AFE0446052C52
:1053300010D04848006941F6EF71084045490861BE
:1053400008E0052C06D04348006941F6DF710840AB
:1053500040490861204630BDF0B505460E46174667
:1053600004243B483B4988603B488860E002FFF7E3
:10537000E7FD0446042C19D13648006940F01000BE
:105380003449086147F0F800304328433449088025
:105390004FF40050FFF7D4FD0446052C06D02D48ED
:1053A000006941F6EF7108402A4908612046F0BDC6
:1053B0002848C069800870472648006A7047002066
:1053C0002449096811F0200F01D0012000E00020DD
:1053D000704729B11F4A126902431E4B1A6104E04B
:1053E0001C4A126982431B4B1A6170470146002018
:1053F000012908D1174AD26912F0010F01D001200A
:1054000008E0002006E0134AD2680A4201D00120D9
:1054100000E0002070470F49C860704704200D4924
:10542000C96801F00101012901D101200EE00949FB
:10543000C96811F0040F01D0022007E00549C968CE
:1054400011F0100F01D0032000E00420704700008D
:105450002301674500200240AB89EFCD00F8FF1F14
:1054600002F8FF1F38B50446FE4890F82400C8B182
:1054700014B10220009001E000200090F94A126867
:10548000517CF84A526810786B460122F64D2D681F
:10549000A84710B14FF0FF3038BD9DF80010F1481B
:1054A000417424E0EF48807A10B94FF0FF30F3E701
:1054B00024B1EC48407C08B10020EDE714B1012094
:1054C000009001E000200090E64A1268517CE54A15
:1054D000526810786B460122E34D2D68A84710B141
:1054E0004FF0FF30D8E79DF80010DE4841740020EF
:1054F000D2E738B500241AE0DA480068407BA042C1
:1055000004D0D8480068007EA04200D10DE0D54903
:10551000496808786B4601222146D44D2D68A8477A
:1055200010B14FF0FF3038BD00BF601CC4B2CD4891
:1055300040680079A042DFDC0020F4E770B5044643
:105540000D46C8480068407BA04204D0C5480068AA
:10555000007EA04202D14FF0FF3070BDC1484068CC
:105560000079A04202DC4FF0FF30F6E7BD49496800
:1055700008782B4601222146BC4E3668B047ECE73E
:10558000B84949680870704738B50446B54890F87E
:105590002300A04201D1002038BD14B1302000907A
:1055A00001E000200090AF48807C20B19DF8000011
:1055B00040F002000090AB4890F8220020B19DF826
:1055C000000040F080000090A64A1268D17DA54AF4
:1055D000526810786B460122A34D2D68A84710B180
:1055E0004FF0FF30D8E79F4880F823400020D3E7F2
:1055F0007CB5044614F0700F02D00120019005E044
:1056000014B10020019001E040200190954A1268F9
:10561000517D944A5268107801AB0122924D2D6859
:10562000A84720B100218F488172481E7CBD9DF89B
:10563000040020F040008B4908730020019014F012
:10564000400F04D19DF8040040F00400019014F0D4
:10565000200F04D19DF8040040F00200019014F0E6
:10566000100F04D19DF8040040F00100019014F0E7
:10567000080F04D19DF8040040F038000190794AE9
:105680001268917D774A5268107801AB0122764DFD
:105690002D68A84720B1002172488172481EC5E7D5
:1056A00024B1082C02D00020FFF76EFF6D4A12686B
:1056B00011796C4A526810786B4601226B4D2D6847
:1056C000A84710B14FF0FF30B0E714F0010F07D03A
:1056D000112001909DF8000040F02000009006E0AD
:1056E000102001909DF8000020F0200000905D48FF
:1056F00090F8240028B19DF8000040F08000009050
:1057000004E09DF8000020F080000090554A1268E7
:1057100092F82610534A5268107801AB0122524D7C
:105720002D68A84710B14FF0FF307FE74D4A12684F
:1057300011794C4A526810786B4601224A4D2D6807
:10574000A84710B14FF0FF3070E74648847200213F
:1057500001753220FAF788FF002067E738B5044664
:105760002CB14048C089A04201DB642C02DD4FF01F
:10577000FF3038BD3B48C08990FBF4F0401EC0B2FA
:105780000090384A126892F82410364A526810780D
:105790006B460122344D2D68A84710B14FF0FF3001
:1057A000E7E73048C1899DF80000401C91FBF0F00C
:1057B00081B22C4801850020DBE738B50446294832
:1057C000807CA04201D1002038BDF4B3254A126884
:1057D0001179244A526810786B460122234D2D68B6
:1057E000A84710B14FF0FF30EEE79DF8000020F021
:1057F000200000901B4A126811791A4A52681078EA
:105800006B460122184D2D68A84710B14FF0FF30AC
:10581000DAE70320FAF728FF02200090114890F8F9
:10582000220020B19DF8000040F0800000900D485B
:1058300090F8230020B19DF8000040F03000009067
:10584000084A1268D17D074A00E011E052681078DA
:105850006B460122044D2D68A847B8B34FF0FF30C6
:10586000B2E70000280100208C01002090010020F8
:10587000FC4A12681179FB4A526810786B46012283
:10588000F94D2D68A84710B14FF0FF309CE7F5485F
:10589000807A10F0010F05D09DF8000040F0200044
:1058A000009004E09DF8000020F020000090ED4AF8
:1058B00012681179EB4A526810786B460122EB4D61
:1058C0002D68A84718B14FF0FF307DE723E0032093
:1058D000FAF7CAFEE34890F8220010B18020009049
:1058E00001E000200090DF4890F8230020B19DF8EF
:1058F000000040F030000090DA4A1268D17DD94AA9
:10590000526810786B460122D84D2D68A84710B117
:105910004FF0FF3058E7D3488474002054E738B57F
:1059200004460C21CF4880F82A100020FFF745FFDD
:1059300040208DF80000CB4A1268917EC94A526817
:1059400010786B460122C94D2D68A84710B14FF061
:10595000FF3038BDC34890F82A0040F080008DF831
:105960000000C04A1268917FBE4A526810786B46A8
:105970000122BE4D2D68A84710B14FF0FF30E8E777
:1059800002208DF80000B74A1268D17FB54A5268EC
:1059900010786B460122B54D2D68A84710B14FF025
:1059A000FF30D6E788208DF80000AE4A126892F8E2
:1059B0002010AC4A526810786B460122AB4D2D681E
:1059C000A84710B14FF0FF30C3E7A64890F82A006F
:1059D0008DF80000A34A126892F82110A14A52687B
:1059E00010786B460122A14D2D68A84710B14FF0E9
:1059F000FF30AEE70A208DF800009A4A126892F84C
:105A00002210984A526810786B460122974D2D68F3
:105A1000A84710B14FF0FF309BE781208DF80000C0
:105A2000904A126892F823108E4A526810786B469A
:105A300001228E4D2D68A84710B14FF0FF3088E746
:105A400011208DF80000874A126892F82610854AC6
:105A5000526810786B460122844D2D68A84710B11A
:105A60004FF0FF3075E703208DF800007D4A126883
:105A700092F827107B4A526810786B4601227B4DC2
:105A80002D68A84710B14FF0FF3062E7002060E7B3
:105A900038B57448807A10B94FF0FF3038BD002017
:105AA0000090704A1268517C6E4A526810786B46BA
:105AB00001226E4C2468A04710B14FF0FF30EDE793
:105AC000684A12685179674A526810786B46012219
:105AD000664C2468A04710B14FF0FF30DEE7614A02
